{
  "_format": "hh-sol-artifact-1",
  "contractName": "FiestaDAO",
  "sourceName": "contracts/FiestaDAO.sol",
  "abi": [
    {
      "inputs": [],
      "stateMutability": "nonpayable",
      "type": "constructor"
    },
    {
      "inputs": [
        {
          "internalType": "address",
          "name": "sender",
          "type": "address"
        },
        {
          "internalType": "uint256",
          "name": "tokenId",
          "type": "uint256"
        },
        {
          "internalType": "address",
          "name": "owner",
          "type": "address"
        }
      ],
      "name": "ERC721IncorrectOwner",
      "type": "error"
    },
    {
      "inputs": [
        {
          "internalType": "address",
          "name": "operator",
          "type": "address"
        },
        {
          "internalType": "uint256",
          "name": "tokenId",
          "type": "uint256"
        }
      ],
      "name": "ERC721InsufficientApproval",
      "type": "error"
    },
    {
      "inputs": [
        {
          "internalType": "address",
          "name": "approver",
          "type": "address"
        }
      ],
      "name": "ERC721InvalidApprover",
      "type": "error"
    },
    {
      "inputs": [
        {
          "internalType": "address",
          "name": "operator",
          "type": "address"
        }
      ],
      "name": "ERC721InvalidOperator",
      "type": "error"
    },
    {
      "inputs": [
        {
          "internalType": "address",
          "name": "owner",
          "type": "address"
        }
      ],
      "name": "ERC721InvalidOwner",
      "type": "error"
    },
    {
      "inputs": [
        {
          "internalType": "address",
          "name": "receiver",
          "type": "address"
        }
      ],
      "name": "ERC721InvalidReceiver",
      "type": "error"
    },
    {
      "inputs": [
        {
          "internalType": "address",
          "name": "sender",
          "type": "address"
        }
      ],
      "name": "ERC721InvalidSender",
      "type": "error"
    },
    {
      "inputs": [
        {
          "internalType": "uint256",
          "name": "tokenId",
          "type": "uint256"
        }
      ],
      "name": "ERC721NonexistentToken",
      "type": "error"
    },
    {
      "inputs": [
        {
          "internalType": "address",
          "name": "owner",
          "type": "address"
        }
      ],
      "name": "OwnableInvalidOwner",
      "type": "error"
    },
    {
      "inputs": [
        {
          "internalType": "address",
          "name": "account",
          "type": "address"
        }
      ],
      "name": "OwnableUnauthorizedAccount",
      "type": "error"
    },
    {
      "inputs": [],
      "name": "ReentrancyGuardReentrantCall",
      "type": "error"
    },
    {
      "anonymous": false,
      "inputs": [
        {
          "indexed": true,
          "internalType": "address",
          "name": "owner",
          "type": "address"
        },
        {
          "indexed": true,
          "internalType": "address",
          "name": "approved",
          "type": "address"
        },
        {
          "indexed": true,
          "internalType": "uint256",
          "name": "tokenId",
          "type": "uint256"
        }
      ],
      "name": "Approval",
      "type": "event"
    },
    {
      "anonymous": false,
      "inputs": [
        {
          "indexed": true,
          "internalType": "address",
          "name": "owner",
          "type": "address"
        },
        {
          "indexed": true,
          "internalType": "address",
          "name": "operator",
          "type": "address"
        },
        {
          "indexed": false,
          "internalType": "bool",
          "name": "approved",
          "type": "bool"
        }
      ],
      "name": "ApprovalForAll",
      "type": "event"
    },
    {
      "anonymous": false,
      "inputs": [
        {
          "indexed": false,
          "internalType": "uint256",
          "name": "_fromTokenId",
          "type": "uint256"
        },
        {
          "indexed": false,
          "internalType": "uint256",
          "name": "_toTokenId",
          "type": "uint256"
        }
      ],
      "name": "BatchMetadataUpdate",
      "type": "event"
    },
    {
      "anonymous": false,
      "inputs": [
        {
          "indexed": true,
          "internalType": "uint256",
          "name": "projectId",
          "type": "uint256"
        },
        {
          "indexed": false,
          "internalType": "uint256",
          "name": "amount",
          "type": "uint256"
        }
      ],
      "name": "FundsAllocated",
      "type": "event"
    },
    {
      "anonymous": false,
      "inputs": [
        {
          "indexed": false,
          "internalType": "uint256",
          "name": "_tokenId",
          "type": "uint256"
        }
      ],
      "name": "MetadataUpdate",
      "type": "event"
    },
    {
      "anonymous": false,
      "inputs": [
        {
          "indexed": true,
          "internalType": "uint256",
          "name": "tokenId",
          "type": "uint256"
        },
        {
          "indexed": true,
          "internalType": "address",
          "name": "recipient",
          "type": "address"
        },
        {
          "indexed": true,
          "internalType": "uint256",
          "name": "proposalId",
          "type": "uint256"
        },
        {
          "indexed": false,
          "internalType": "string",
          "name": "badgeType",
          "type": "string"
        }
      ],
      "name": "NFTBadgeMinted",
      "type": "event"
    },
    {
      "anonymous": false,
      "inputs": [
        {
          "indexed": true,
          "internalType": "address",
          "name": "previousOwner",
          "type": "address"
        },
        {
          "indexed": true,
          "internalType": "address",
          "name": "newOwner",
          "type": "address"
        }
      ],
      "name": "OwnershipTransferred",
      "type": "event"
    },
    {
      "anonymous": false,
      "inputs": [
        {
          "indexed": true,
          "internalType": "uint256",
          "name": "projectId",
          "type": "uint256"
        },
        {
          "indexed": false,
          "internalType": "string",
          "name": "title",
          "type": "string"
        },
        {
          "indexed": false,
          "internalType": "address",
          "name": "creator",
          "type": "address"
        },
        {
          "indexed": false,
          "internalType": "uint256",
          "name": "requestedAmount",
          "type": "uint256"
        }
      ],
      "name": "ProjectCreated",
      "type": "event"
    },
    {
      "anonymous": false,
      "inputs": [
        {
          "indexed": true,
          "internalType": "uint256",
          "name": "proposalId",
          "type": "uint256"
        },
        {
          "indexed": true,
          "internalType": "uint256",
          "name": "projectId",
          "type": "uint256"
        },
        {
          "indexed": false,
          "internalType": "string",
          "name": "title",
          "type": "string"
        },
        {
          "indexed": false,
          "internalType": "address",
          "name": "creator",
          "type": "address"
        }
      ],
      "name": "ProposalCreated",
      "type": "event"
    },
    {
      "anonymous": false,
      "inputs": [
        {
          "indexed": true,
          "internalType": "uint256",
          "name": "proposalId",
          "type": "uint256"
        },
        {
          "indexed": false,
          "internalType": "bool",
          "name": "passed",
          "type": "bool"
        }
      ],
      "name": "ProposalExecuted",
      "type": "event"
    },
    {
      "anonymous": false,
      "inputs": [
        {
          "indexed": true,
          "internalType": "address",
          "name": "user",
          "type": "address"
        },
        {
          "indexed": false,
          "internalType": "uint256",
          "name": "amount",
          "type": "uint256"
        }
      ],
      "name": "TokensStaked",
      "type": "event"
    },
    {
      "anonymous": false,
      "inputs": [
        {
          "indexed": true,
          "internalType": "address",
          "name": "user",
          "type": "address"
        },
        {
          "indexed": false,
          "internalType": "uint256",
          "name": "amount",
          "type": "uint256"
        }
      ],
      "name": "TokensUnstaked",
      "type": "event"
    },
    {
      "anonymous": false,
      "inputs": [
        {
          "indexed": true,
          "internalType": "address",
          "name": "from",
          "type": "address"
        },
        {
          "indexed": true,
          "internalType": "address",
          "name": "to",
          "type": "address"
        },
        {
          "indexed": true,
          "internalType": "uint256",
          "name": "tokenId",
          "type": "uint256"
        }
      ],
      "name": "Transfer",
      "type": "event"
    },
    {
      "anonymous": false,
      "inputs": [
        {
          "indexed": true,
          "internalType": "uint256",
          "name": "proposalId",
          "type": "uint256"
        },
        {
          "indexed": true,
          "internalType": "address",
          "name": "voter",
          "type": "address"
        },
        {
          "indexed": false,
          "internalType": "bool",
          "name": "choice",
          "type": "bool"
        },
        {
          "indexed": false,
          "internalType": "uint256",
          "name": "votingPower",
          "type": "uint256"
        }
      ],
      "name": "VoteCast",
      "type": "event"
    },
    {
      "inputs": [],
      "name": "MIN_STAKE_TO_CREATE_PROPOSAL",
      "outputs": [
        {
          "internalType": "uint256",
          "name": "",
          "type": "uint256"
        }
      ],
      "stateMutability": "view",
      "type": "function"
    },
    {
      "inputs": [],
      "name": "MIN_STAKE_TO_VOTE",
      "outputs": [
        {
          "internalType": "uint256",
          "name": "",
          "type": "uint256"
        }
      ],
      "stateMutability": "view",
      "type": "function"
    },
    {
      "inputs": [],
      "name": "VOTING_DURATION",
      "outputs": [
        {
          "internalType": "uint256",
          "name": "",
          "type": "uint256"
        }
      ],
      "stateMutability": "view",
      "type": "function"
    },
    {
      "inputs": [
        {
          "internalType": "address",
          "name": "to",
          "type": "address"
        },
        {
          "internalType": "uint256",
          "name": "tokenId",
          "type": "uint256"
        }
      ],
      "name": "approve",
      "outputs": [],
      "stateMutability": "nonpayable",
      "type": "function"
    },
    {
      "inputs": [
        {
          "internalType": "address",
          "name": "owner",
          "type": "address"
        }
      ],
      "name": "balanceOf",
      "outputs": [
        {
          "internalType": "uint256",
          "name": "",
          "type": "uint256"
        }
      ],
      "stateMutability": "view",
      "type": "function"
    },
    {
      "inputs": [
        {
          "internalType": "string",
          "name": "_title",
          "type": "string"
        },
        {
          "internalType": "string",
          "name": "_description",
          "type": "string"
        },
        {
          "internalType": "string",
          "name": "_category",
          "type": "string"
        },
        {
          "internalType": "address",
          "name": "_beneficiary",
          "type": "address"
        },
        {
          "internalType": "uint256",
          "name": "_requestedAmount",
          "type": "uint256"
        }
      ],
      "name": "createProject",
      "outputs": [
        {
          "internalType": "uint256",
          "name": "",
          "type": "uint256"
        }
      ],
      "stateMutability": "nonpayable",
      "type": "function"
    },
    {
      "inputs": [
        {
          "internalType": "uint256",
          "name": "_projectId",
          "type": "uint256"
        },
        {
          "internalType": "string",
          "name": "_title",
          "type": "string"
        },
        {
          "internalType": "string",
          "name": "_description",
          "type": "string"
        }
      ],
      "name": "createProposal",
      "outputs": [
        {
          "internalType": "uint256",
          "name": "",
          "type": "uint256"
        }
      ],
      "stateMutability": "nonpayable",
      "type": "function"
    },
    {
      "inputs": [],
      "name": "depositToTreasury",
      "outputs": [],
      "stateMutability": "payable",
      "type": "function"
    },
    {
      "inputs": [
        {
          "internalType": "uint256",
          "name": "_proposalId",
          "type": "uint256"
        }
      ],
      "name": "executeProposal",
      "outputs": [],
      "stateMutability": "nonpayable",
      "type": "function"
    },
    {
      "inputs": [
        {
          "internalType": "uint256",
          "name": "tokenId",
          "type": "uint256"
        }
      ],
      "name": "getApproved",
      "outputs": [
        {
          "internalType": "address",
          "name": "",
          "type": "address"
        }
      ],
      "stateMutability": "view",
      "type": "function"
    },
    {
      "inputs": [
        {
          "internalType": "uint256",
          "name": "_tokenId",
          "type": "uint256"
        }
      ],
      "name": "getNFTBadge",
      "outputs": [
        {
          "internalType": "uint256",
          "name": "tokenId",
          "type": "uint256"
        },
        {
          "internalType": "uint256",
          "name": "proposalId",
          "type": "uint256"
        },
        {
          "internalType": "uint256",
          "name": "projectId",
          "type": "uint256"
        },
        {
          "internalType": "string",
          "name": "badgeType",
          "type": "string"
        },
        {
          "internalType": "bool",
          "name": "voteChoice",
          "type": "bool"
        },
        {
          "internalType": "uint256",
          "name": "mintedAt",
          "type": "uint256"
        },
        {
          "internalType": "string",
          "name": "rarity",
          "type": "string"
        }
      ],
      "stateMutability": "view",
      "type": "function"
    },
    {
      "inputs": [
        {
          "internalType": "uint256",
          "name": "_projectId",
          "type": "uint256"
        }
      ],
      "name": "getProject",
      "outputs": [
        {
          "internalType": "uint256",
          "name": "id",
          "type": "uint256"
        },
        {
          "internalType": "string",
          "name": "title",
          "type": "string"
        },
        {
          "internalType": "string",
          "name": "description",
          "type": "string"
        },
        {
          "internalType": "string",
          "name": "category",
          "type": "string"
        },
        {
          "internalType": "address",
          "name": "beneficiary",
          "type": "address"
        },
        {
          "internalType": "uint256",
          "name": "requestedAmount",
          "type": "uint256"
        },
        {
          "internalType": "uint256",
          "name": "fundedAmount",
          "type": "uint256"
        },
        {
          "internalType": "bool",
          "name": "isActive",
          "type": "bool"
        },
        {
          "internalType": "bool",
          "name": "isCompleted",
          "type": "bool"
        },
        {
          "internalType": "uint256",
          "name": "createdAt",
          "type": "uint256"
        },
        {
          "internalType": "address",
          "name": "creator",
          "type": "address"
        }
      ],
      "stateMutability": "view",
      "type": "function"
    },
    {
      "inputs": [
        {
          "internalType": "uint256",
          "name": "_proposalId",
          "type": "uint256"
        }
      ],
      "name": "getProposal",
      "outputs": [
        {
          "internalType": "uint256",
          "name": "id",
          "type": "uint256"
        },
        {
          "internalType": "uint256",
          "name": "projectId",
          "type": "uint256"
        },
        {
          "internalType": "string",
          "name": "title",
          "type": "string"
        },
        {
          "internalType": "string",
          "name": "description",
          "type": "string"
        },
        {
          "internalType": "uint256",
          "name": "votesFor",
          "type": "uint256"
        },
        {
          "internalType": "uint256",
          "name": "votesAgainst",
          "type": "uint256"
        },
        {
          "internalType": "uint256",
          "name": "endTime",
          "type": "uint256"
        },
        {
          "internalType": "bool",
          "name": "executed",
          "type": "bool"
        },
        {
          "internalType": "bool",
          "name": "passed",
          "type": "bool"
        }
      ],
      "stateMutability": "view",
      "type": "function"
    },
    {
      "inputs": [],
      "name": "getTotalNFTs",
      "outputs": [
        {
          "internalType": "uint256",
          "name": "",
          "type": "uint256"
        }
      ],
      "stateMutability": "view",
      "type": "function"
    },
    {
      "inputs": [],
      "name": "getTotalProjects",
      "outputs": [
        {
          "internalType": "uint256",
          "name": "",
          "type": "uint256"
        }
      ],
      "stateMutability": "view",
      "type": "function"
    },
    {
      "inputs": [],
      "name": "getTotalProposals",
      "outputs": [
        {
          "internalType": "uint256",
          "name": "",
          "type": "uint256"
        }
      ],
      "stateMutability": "view",
      "type": "function"
    },
    {
      "inputs": [
        {
          "internalType": "address",
          "name": "_user",
          "type": "address"
        }
      ],
      "name": "getUserNFTs",
      "outputs": [
        {
          "internalType": "uint256[]",
          "name": "",
          "type": "uint256[]"
        }
      ],
      "stateMutability": "view",
      "type": "function"
    },
    {
      "inputs": [
        {
          "internalType": "address",
          "name": "_user",
          "type": "address"
        }
      ],
      "name": "getUserStakeInfo",
      "outputs": [
        {
          "internalType": "uint256",
          "name": "stakedAmount",
          "type": "uint256"
        },
        {
          "internalType": "uint256",
          "name": "userVotingPower",
          "type": "uint256"
        }
      ],
      "stateMutability": "view",
      "type": "function"
    },
    {
      "inputs": [
        {
          "internalType": "uint256",
          "name": "_proposalId",
          "type": "uint256"
        },
        {
          "internalType": "address",
          "name": "_voter",
          "type": "address"
        }
      ],
      "name": "getVoteChoice",
      "outputs": [
        {
          "internalType": "bool",
          "name": "",
          "type": "bool"
        }
      ],
      "stateMutability": "view",
      "type": "function"
    },
    {
      "inputs": [
        {
          "internalType": "uint256",
          "name": "_proposalId",
          "type": "uint256"
        },
        {
          "internalType": "address",
          "name": "_voter",
          "type": "address"
        }
      ],
      "name": "hasVoted",
      "outputs": [
        {
          "internalType": "bool",
          "name": "",
          "type": "bool"
        }
      ],
      "stateMutability": "view",
      "type": "function"
    },
    {
      "inputs": [
        {
          "internalType": "address",
          "name": "owner",
          "type": "address"
        },
        {
          "internalType": "address",
          "name": "operator",
          "type": "address"
        }
      ],
      "name": "isApprovedForAll",
      "outputs": [
        {
          "internalType": "bool",
          "name": "",
          "type": "bool"
        }
      ],
      "stateMutability": "view",
      "type": "function"
    },
    {
      "inputs": [],
      "name": "name",
      "outputs": [
        {
          "internalType": "string",
          "name": "",
          "type": "string"
        }
      ],
      "stateMutability": "view",
      "type": "function"
    },
    {
      "inputs": [
        {
          "internalType": "uint256",
          "name": "",
          "type": "uint256"
        }
      ],
      "name": "nftBadges",
      "outputs": [
        {
          "internalType": "uint256",
          "name": "tokenId",
          "type": "uint256"
        },
        {
          "internalType": "uint256",
          "name": "proposalId",
          "type": "uint256"
        },
        {
          "internalType": "uint256",
          "name": "projectId",
          "type": "uint256"
        },
        {
          "internalType": "string",
          "name": "badgeType",
          "type": "string"
        },
        {
          "internalType": "bool",
          "name": "voteChoice",
          "type": "bool"
        },
        {
          "internalType": "uint256",
          "name": "mintedAt",
          "type": "uint256"
        },
        {
          "internalType": "string",
          "name": "rarity",
          "type": "string"
        }
      ],
      "stateMutability": "view",
      "type": "function"
    },
    {
      "inputs": [],
      "name": "owner",
      "outputs": [
        {
          "internalType": "address",
          "name": "",
          "type": "address"
        }
      ],
      "stateMutability": "view",
      "type": "function"
    },
    {
      "inputs": [
        {
          "internalType": "uint256",
          "name": "tokenId",
          "type": "uint256"
        }
      ],
      "name": "ownerOf",
      "outputs": [
        {
          "internalType": "address",
          "name": "",
          "type": "address"
        }
      ],
      "stateMutability": "view",
      "type": "function"
    },
    {
      "inputs": [
        {
          "internalType": "uint256",
          "name": "",
          "type": "uint256"
        }
      ],
      "name": "projects",
      "outputs": [
        {
          "internalType": "uint256",
          "name": "id",
          "type": "uint256"
        },
        {
          "internalType": "string",
          "name": "title",
          "type": "string"
        },
        {
          "internalType": "string",
          "name": "description",
          "type": "string"
        },
        {
          "internalType": "string",
          "name": "category",
          "type": "string"
        },
        {
          "internalType": "address",
          "name": "beneficiary",
          "type": "address"
        },
        {
          "internalType": "uint256",
          "name": "requestedAmount",
          "type": "uint256"
        },
        {
          "internalType": "uint256",
          "name": "fundedAmount",
          "type": "uint256"
        },
        {
          "internalType": "bool",
          "name": "isActive",
          "type": "bool"
        },
        {
          "internalType": "bool",
          "name": "isCompleted",
          "type": "bool"
        },
        {
          "internalType": "uint256",
          "name": "createdAt",
          "type": "uint256"
        },
        {
          "internalType": "address",
          "name": "creator",
          "type": "address"
        }
      ],
      "stateMutability": "view",
      "type": "function"
    },
    {
      "inputs": [
        {
          "internalType": "uint256",
          "name": "",
          "type": "uint256"
        }
      ],
      "name": "proposals",
      "outputs": [
        {
          "internalType": "uint256",
          "name": "id",
          "type": "uint256"
        },
        {
          "internalType": "uint256",
          "name": "projectId",
          "type": "uint256"
        },
        {
          "internalType": "string",
          "name": "title",
          "type": "string"
        },
        {
          "internalType": "string",
          "name": "description",
          "type": "string"
        },
        {
          "internalType": "uint256",
          "name": "votesFor",
          "type": "uint256"
        },
        {
          "internalType": "uint256",
          "name": "votesAgainst",
          "type": "uint256"
        },
        {
          "internalType": "uint256",
          "name": "endTime",
          "type": "uint256"
        },
        {
          "internalType": "bool",
          "name": "executed",
          "type": "bool"
        },
        {
          "internalType": "bool",
          "name": "passed",
          "type": "bool"
        }
      ],
      "stateMutability": "view",
      "type": "function"
    },
    {
      "inputs": [],
      "name": "renounceOwnership",
      "outputs": [],
      "stateMutability": "nonpayable",
      "type": "function"
    },
    {
      "inputs": [
        {
          "internalType": "address",
          "name": "from",
          "type": "address"
        },
        {
          "internalType": "address",
          "name": "to",
          "type": "address"
        },
        {
          "internalType": "uint256",
          "name": "tokenId",
          "type": "uint256"
        }
      ],
      "name": "safeTransferFrom",
      "outputs": [],
      "stateMutability": "nonpayable",
      "type": "function"
    },
    {
      "inputs": [
        {
          "internalType": "address",
          "name": "from",
          "type": "address"
        },
        {
          "internalType": "address",
          "name": "to",
          "type": "address"
        },
        {
          "internalType": "uint256",
          "name": "tokenId",
          "type": "uint256"
        },
        {
          "internalType": "bytes",
          "name": "data",
          "type": "bytes"
        }
      ],
      "name": "safeTransferFrom",
      "outputs": [],
      "stateMutability": "nonpayable",
      "type": "function"
    },
    {
      "inputs": [
        {
          "internalType": "address",
          "name": "operator",
          "type": "address"
        },
        {
          "internalType": "bool",
          "name": "approved",
          "type": "bool"
        }
      ],
      "name": "setApprovalForAll",
      "outputs": [],
      "stateMutability": "nonpayable",
      "type": "function"
    },
    {
      "inputs": [],
      "name": "stakeTokens",
      "outputs": [],
      "stateMutability": "payable",
      "type": "function"
    },
    {
      "inputs": [
        {
          "internalType": "address",
          "name": "",
          "type": "address"
        }
      ],
      "name": "stakedTokens",
      "outputs": [
        {
          "internalType": "uint256",
          "name": "",
          "type": "uint256"
        }
      ],
      "stateMutability": "view",
      "type": "function"
    },
    {
      "inputs": [
        {
          "internalType": "bytes4",
          "name": "interfaceId",
          "type": "bytes4"
        }
      ],
      "name": "supportsInterface",
      "outputs": [
        {
          "internalType": "bool",
          "name": "",
          "type": "bool"
        }
      ],
      "stateMutability": "view",
      "type": "function"
    },
    {
      "inputs": [],
      "name": "symbol",
      "outputs": [
        {
          "internalType": "string",
          "name": "",
          "type": "string"
        }
      ],
      "stateMutability": "view",
      "type": "function"
    },
    {
      "inputs": [
        {
          "internalType": "uint256",
          "name": "tokenId",
          "type": "uint256"
        }
      ],
      "name": "tokenURI",
      "outputs": [
        {
          "internalType": "string",
          "name": "",
          "type": "string"
        }
      ],
      "stateMutability": "view",
      "type": "function"
    },
    {
      "inputs": [
        {
          "internalType": "address",
          "name": "from",
          "type": "address"
        },
        {
          "internalType": "address",
          "name": "to",
          "type": "address"
        },
        {
          "internalType": "uint256",
          "name": "tokenId",
          "type": "uint256"
        }
      ],
      "name": "transferFrom",
      "outputs": [],
      "stateMutability": "nonpayable",
      "type": "function"
    },
    {
      "inputs": [
        {
          "internalType": "address",
          "name": "newOwner",
          "type": "address"
        }
      ],
      "name": "transferOwnership",
      "outputs": [],
      "stateMutability": "nonpayable",
      "type": "function"
    },
    {
      "inputs": [],
      "name": "treasuryBalance",
      "outputs": [
        {
          "internalType": "uint256",
          "name": "",
          "type": "uint256"
        }
      ],
      "stateMutability": "view",
      "type": "function"
    },
    {
      "inputs": [
        {
          "internalType": "uint256",
          "name": "amount",
          "type": "uint256"
        }
      ],
      "name": "unstakeTokens",
      "outputs": [],
      "stateMutability": "nonpayable",
      "type": "function"
    },
    {
      "inputs": [
        {
          "internalType": "address",
          "name": "",
          "type": "address"
        },
        {
          "internalType": "uint256",
          "name": "",
          "type": "uint256"
        }
      ],
      "name": "userNFTs",
      "outputs": [
        {
          "internalType": "uint256",
          "name": "",
          "type": "uint256"
        }
      ],
      "stateMutability": "view",
      "type": "function"
    },
    {
      "inputs": [
        {
          "internalType": "uint256",
          "name": "_proposalId",
          "type": "uint256"
        },
        {
          "internalType": "bool",
          "name": "_choice",
          "type": "bool"
        }
      ],
      "name": "vote",
      "outputs": [],
      "stateMutability": "nonpayable",
      "type": "function"
    },
    {
      "inputs": [
        {
          "internalType": "address",
          "name": "",
          "type": "address"
        }
      ],
      "name": "votingPower",
      "outputs": [
        {
          "internalType": "uint256",
          "name": "",
          "type": "uint256"
        }
      ],
      "stateMutability": "view",
      "type": "function"
    },
    {
      "inputs": [
        {
          "internalType": "uint256",
          "name": "_projectId",
          "type": "uint256"
        }
      ],
      "name": "withdrawFromProject",
      "outputs": [],
      "stateMutability": "nonpayable",
      "type": "function"
    }
  ],
  "bytecode": "0x60806040523480156200001157600080fd5b50336040518060400160405280601a81526020017f46696573746144414f2050726f6f66206f662043756c74757265000000000000815250604051806040016040528060058152602001644644504f4360d81b8152508160009081620000789190620001c7565b506001620000878282620001c7565b5050506001600160a01b038116620000b957604051631e4fbdf760e01b81526000600482015260240160405180910390fd5b620000c481620000d0565b50600160085562000293565b600780546001600160a01b038381166001600160a01b0319831681179093556040519116919082907f8be0079c531659141344cd1fd0a4f28419497f9722a3daafe3b4186f6b6457e090600090a35050565b634e487b7160e01b600052604160045260246000fd5b600181811c908216806200014d57607f821691505b6020821081036200016e57634e487b7160e01b600052602260045260246000fd5b50919050565b601f821115620001c257600081815260208120601f850160051c810160208610156200019d5750805b601f850160051c820191505b81811015620001be57828155600101620001a9565b5050505b505050565b81516001600160401b03811115620001e357620001e362000122565b620001fb81620001f4845462000138565b8462000174565b602080601f8311600181146200023357600084156200021a5750858301515b600019600386901b1c1916600185901b178555620001be565b600085815260208120601f198616915b82811015620002645788860151825594840194600190910190840162000243565b5085821015620002835787850151600019600388901b60f8161c191681555b5050505050600190811b01905550565b61390e80620002a36000396000f3fe6080604052600436106102675760003560e01c8063715018a611610144578063b776c8c9116100b6578063c87b56dd1161007a578063c87b56dd146107cb578063c9d27afe146107eb578063ce46643b1461080b578063e985e9c514610813578063f0f3f2c814610833578063f2fde38b1461085357600080fd5b8063b776c8c9146106ea578063b88d4fde14610706578063c07473f614610726578063c32d3ae214610753578063c7f758a8146107ab57600080fd5b80638da5cb5b116101085780638da5cb5b1461063357806395d89b4114610651578063a1712eda14610666578063a22cb46514610686578063a438d208146106a6578063a5b39cfb146106bd57600080fd5b8063715018a6146105c1578063718b2058146105d65780637a5e3a26146105de5780637f318a5f146105fe578063812739a21461061e57600080fd5b8063291c73c3116101dd57806352de4ee5116101a157806352de4ee5146104f45780635ccd385414610521578063608e4dd0146105415780636352211e146105615780636c39c4a91461058157806370a08231146105a157600080fd5b8063291c73c31461043f57806330bdb3511461045f578063313dab201461047457806342842e0e1461048a57806343859632146104aa57600080fd5b80630d61b5191161022f5780630d61b51914610356578063107046bd146103765780631298b744146103ad5780631a5007dd146103d7578063221c23f2146103ec57806323b872dd1461041f57600080fd5b8063013cf08b1461026c57806301ffc9a7146102aa57806306fdde03146102da578063081812fc146102fc578063095ea7b314610334575b600080fd5b34801561027857600080fd5b5061028c610287366004613045565b610873565b6040516102a1999897969594939291906130ae565b60405180910390f35b3480156102b657600080fd5b506102ca6102c536600461312a565b6109d1565b60405190151581526020016102a1565b3480156102e657600080fd5b506102ef6109fc565b6040516102a19190613147565b34801561030857600080fd5b5061031c610317366004613045565b610a8e565b6040516001600160a01b0390911681526020016102a1565b34801561034057600080fd5b5061035461034f366004613171565b610ab7565b005b34801561036257600080fd5b50610354610371366004613045565b610ac6565b34801561038257600080fd5b50610396610391366004613045565b610c85565b6040516102a19b9a9998979695949392919061319b565b3480156103b957600080fd5b506103c9678ac7230489e8000081565b6040519081526020016102a1565b3480156103e357600080fd5b50600a546103c9565b3480156103f857600080fd5b5061040c610407366004613045565b610e84565b6040516102a1979695949392919061322b565b34801561042b57600080fd5b5061035461043a36600461327e565b611007565b34801561044b57600080fd5b506103c961045a366004613171565b611092565b34801561046b57600080fd5b506009546103c9565b34801561048057600080fd5b506103c960125481565b34801561049657600080fd5b506103546104a536600461327e565b6110c3565b3480156104b657600080fd5b506102ca6104c53660046132ba565b6000828152600d602090815260408083206001600160a01b038516845260080190915290205460ff1692915050565b34801561050057600080fd5b5061051461050f3660046132e6565b6110e3565b6040516102a19190613301565b34801561052d57600080fd5b506103c961053c3660046133f1565b61114f565b34801561054d57600080fd5b5061035461055c366004613045565b61143b565b34801561056d57600080fd5b5061031c61057c366004613045565b611607565b34801561058d57600080fd5b5061035461059c366004613045565b611612565b3480156105ad57600080fd5b506103c96105bc3660046132e6565b6117ec565b3480156105cd57600080fd5b50610354611834565b610354611848565b3480156105ea57600080fd5b506103c96105f9366004613492565b611869565b34801561060a57600080fd5b506102ca6106193660046132ba565b611a49565b34801561062a57600080fd5b50600b546103c9565b34801561063f57600080fd5b506007546001600160a01b031661031c565b34801561065d57600080fd5b506102ef611ae3565b34801561067257600080fd5b5061040c610681366004613045565b611af2565b34801561069257600080fd5b506103546106a136600461350f565b611c47565b3480156106b257600080fd5b506103c962093a8081565b3480156106c957600080fd5b506103c96106d83660046132e6565b600f6020526000908152604090205481565b3480156106f657600080fd5b506103c9670de0b6b3a764000081565b34801561071257600080fd5b50610354610721366004613539565b611c52565b34801561073257600080fd5b506103c96107413660046132e6565b60106020526000908152604090205481565b34801561075f57600080fd5b5061079661076e3660046132e6565b6001600160a01b03166000908152600f60209081526040808320546010909252909120549091565b604080519283526020830191909152016102a1565b3480156107b757600080fd5b5061028c6107c6366004613045565b611c6a565b3480156107d757600080fd5b506102ef6107e6366004613045565b611dfd565b3480156107f757600080fd5b506103546108063660046135b5565b611f0e565b610354612177565b34801561081f57600080fd5b506102ca61082e3660046135d8565b61223d565b34801561083f57600080fd5b5061039661084e366004613045565b61226b565b34801561085f57600080fd5b5061035461086e3660046132e6565b6124ac565b600d602052600090815260409020805460018201546002830180549293919261089b90613602565b80601f01602080910402602001604051908101604052809291908181526020018280546108c790613602565b80156109145780601f106108e957610100808354040283529160200191610914565b820191906000526020600020905b8154815290600101906020018083116108f757829003601f168201915b50505050509080600301805461092990613602565b80601f016020809104026020016040519081016040528092919081815260200182805461095590613602565b80156109a25780601f10610977576101008083540402835291602001916109a2565b820191906000526020600020905b81548152906001019060200180831161098557829003601f168201915b505050506004830154600584015460068501546007909501549394919390925060ff8082169161010090041689565b60006001600160e01b03198216632483248360e11b14806109f657506109f6826124e7565b92915050565b606060008054610a0b90613602565b80601f0160208091040260200160405190810160405280929190818152602001828054610a3790613602565b8015610a845780601f10610a5957610100808354040283529160200191610a84565b820191906000526020600020905b815481529060010190602001808311610a6757829003601f168201915b5050505050905090565b6000610a9982612537565b506000828152600460205260409020546001600160a01b03166109f6565b610ac2828233612570565b5050565b6000818152600d602052604090206006810154421015610b2d5760405162461bcd60e51b815260206004820152601760248201527f566f74696e6720706572696f64206e6f7420656e64656400000000000000000060448201526064015b60405180910390fd5b600781015460ff1615610b7e5760405162461bcd60e51b8152602060048201526019602482015278141c9bdc1bdcd85b08185b1c9958591e48195e1958dd5d1959603a1b6044820152606401610b24565b60078101805460ff19166001179055600581015460048201541115610c3d5760078101805461ff00191661010017905560018101546000908152600c6020526040902060058101546012548111610c3a5780826006016000828254610be39190613652565b925050819055508060126000828254610bfc9190613665565b909155505060018301546040518281527fa76702541970ac8a240a5f42c5a0d1558c299844949ec41fad31fac5444e55049060200160405180910390a25b50505b600781015460405161010090910460ff161515815282907f948f4a9cd986f1118c3fbd459f7a22b23c0693e1ca3ef06a6a8be5aa7d39cc039060200160405180910390a25050565b600c6020526000908152604090208054600182018054919291610ca790613602565b80601f0160208091040260200160405190810160405280929190818152602001828054610cd390613602565b8015610d205780601f10610cf557610100808354040283529160200191610d20565b820191906000526020600020905b815481529060010190602001808311610d0357829003601f168201915b505050505090806002018054610d3590613602565b80601f0160208091040260200160405190810160405280929190818152602001828054610d6190613602565b8015610dae5780601f10610d8357610100808354040283529160200191610dae565b820191906000526020600020905b815481529060010190602001808311610d9157829003601f168201915b505050505090806003018054610dc390613602565b80601f0160208091040260200160405190810160405280929190818152602001828054610def90613602565b8015610e3c5780601f10610e1157610100808354040283529160200191610e3c565b820191906000526020600020905b815481529060010190602001808311610e1f57829003601f168201915b5050506004840154600585015460068601546007870154600888015460099098015496976001600160a01b039485169793965091945060ff808216946101009092041692168b565b6000806000606060008060606000600e60008a81526020019081526020016000209050806000015481600101548260020154836003018460040160009054906101000a900460ff16856005015486600601838054610ee190613602565b80601f0160208091040260200160405190810160405280929190818152602001828054610f0d90613602565b8015610f5a5780601f10610f2f57610100808354040283529160200191610f5a565b820191906000526020600020905b815481529060010190602001808311610f3d57829003601f168201915b50505050509350808054610f6d90613602565b80601f0160208091040260200160405190810160405280929190818152602001828054610f9990613602565b8015610fe65780601f10610fbb57610100808354040283529160200191610fe6565b820191906000526020600020905b815481529060010190602001808311610fc957829003601f168201915b50505050509050975097509750975097509750975050919395979092949650565b6001600160a01b03821661103157604051633250574960e11b815260006004820152602401610b24565b600061103e83833361257d565b9050836001600160a01b0316816001600160a01b03161461108c576040516364283d7b60e01b81526001600160a01b0380861660048301526024820184905282166044820152606401610b24565b50505050565b601160205281600052604060002081815481106110ae57600080fd5b90600052602060002001600091509150505481565b6110de83838360405180602001604052806000815250611c52565b505050565b6001600160a01b03811660009081526011602090815260409182902080548351818402810184019094528084526060939283018282801561114357602002820191906000526020600020905b81548152602001906001019080831161112f575b50505050509050919050565b6000808651116111995760405162461bcd60e51b81526020600482015260156024820152745469746c652063616e6e6f7420626520656d70747960581b6044820152606401610b24565b60008551116111ea5760405162461bcd60e51b815260206004820152601b60248201527f4465736372697074696f6e2063616e6e6f7420626520656d70747900000000006044820152606401610b24565b6001600160a01b0383166112405760405162461bcd60e51b815260206004820152601b60248201527f496e76616c69642062656e6566696369617279206164647265737300000000006044820152606401610b24565b600082116112a05760405162461bcd60e51b815260206004820152602760248201527f52657175657374656420616d6f756e74206d75737420626520677265617465726044820152660207468616e20360cc1b6064820152608401610b24565b600b80549060006112b083613678565b9091555050600b54604080516101608101825282815260208082018a81528284018a9052606083018990526001600160a01b038816608084015260a08301879052600060c08401819052600160e0850181905261010085018290524261012086015233610140860152868252600c909352939093208251815592519192919082019061133c90826136d7565b506040820151600282019061135190826136d7565b506060820151600382019061136690826136d7565b5060808201516004820180546001600160a01b039283166001600160a01b03199182161790915560a0840151600584015560c0840151600684015560e08401516007840180546101008088015115150261ff00199315159390931661ffff199091161791909117905561012084015160088401556101409093015160099092018054929091169190921617905560405181907fa026ee65bff24e0219543a4cec2746ef952b145e2658ac5db36953d7044712a990611429908a9033908890613797565b60405180910390a29695505050505050565b611443612676565b336000908152600f60205260409020548111156114a25760405162461bcd60e51b815260206004820152601a60248201527f496e73756666696369656e74207374616b656420746f6b656e730000000000006044820152606401610b24565b600081116114f25760405162461bcd60e51b815260206004820152601d60248201527f416d6f756e74206d7573742062652067726561746572207468616e20300000006044820152606401610b24565b336000908152600f602052604081208054839290611511908490613665565b90915550503360009081526010602052604081208054839290611535908490613665565b9091555050604051600090339083908381818185875af1925050503d806000811461157c576040519150601f19603f3d011682016040523d82523d6000602084013e611581565b606091505b50509050806115c45760405162461bcd60e51b815260206004820152600f60248201526e151c985b9cd9995c8819985a5b1959608a1b6044820152606401610b24565b60405182815233907f9845e367b683334e5c0b12d7b81721ac518e649376fa65e3d68324e8f34f26799060200160405180910390a2506116046001600855565b50565b60006109f682612537565b61161a612676565b6000818152600c6020526040902060048101546001600160a01b031633146116845760405162461bcd60e51b815260206004820152601d60248201527f4f6e6c792062656e65666963696172792063616e2077697468647261770000006044820152606401610b24565b60008160060154116116cf5760405162461bcd60e51b81526020600482015260146024820152734e6f2066756e647320746f20776974686472617760601b6044820152606401610b24565b6007810154610100900460ff16156117295760405162461bcd60e51b815260206004820152601960248201527f50726f6a65637420616c726561647920636f6d706c65746564000000000000006044820152606401610b24565b60068101805460009182905560078301805461ff00191661010017905560048301546040519192916001600160a01b039091169083908381818185875af1925050503d8060008114611797576040519150601f19603f3d011682016040523d82523d6000602084013e61179c565b606091505b50509050806117df5760405162461bcd60e51b815260206004820152600f60248201526e151c985b9cd9995c8819985a5b1959608a1b6044820152606401610b24565b5050506116046001600855565b60006001600160a01b038216611818576040516322718ad960e21b815260006004820152602401610b24565b506001600160a01b031660009081526003602052604090205490565b61183c6126a0565b61184660006126cd565b565b6118506126a0565b34601260008282546118629190613652565b9091555050565b33600090815260106020526040812054678ac7230489e8000011156118e55760405162461bcd60e51b815260206004820152602c60248201527f496e73756666696369656e7420766f74696e6720706f77657220746f2063726560448201526b185d19481c1c9bdc1bdcd85b60a21b6064820152608401610b24565b6000848152600c602052604090206007015460ff1661193e5760405162461bcd60e51b815260206004820152601560248201527450726f6a656374206973206e6f742061637469766560581b6044820152606401610b24565b60008351116119875760405162461bcd60e51b81526020600482015260156024820152745469746c652063616e6e6f7420626520656d70747960581b6044820152606401610b24565b600a805490600061199783613678565b9091555050600a546000818152600d6020526040902081815560018101869055600281016119c586826136d7565b50600381016119d485826136d7565b5060006004820181905560058201556119f062093a8042613652565b600682015560078101805461ffff19169055604051869083907fdbe2979c42a8aeb55be9420e680648e5775a48bac33be1873bdcb61d8b49526690611a3890899033906137c5565b60405180910390a350949350505050565b6000828152600d602090815260408083206001600160a01b038516845260080190915281205460ff16611ab35760405162461bcd60e51b8152602060048201526012602482015271155cd95c881a185cc81b9bdd081d9bdd195960721b6044820152606401610b24565b506000828152600d602090815260408083206001600160a01b038516845260090190915290205460ff1692915050565b606060018054610a0b90613602565b600e60205260009081526040902080546001820154600283015460038401805493949293919291611b2290613602565b80601f0160208091040260200160405190810160405280929190818152602001828054611b4e90613602565b8015611b9b5780601f10611b7057610100808354040283529160200191611b9b565b820191906000526020600020905b815481529060010190602001808311611b7e57829003601f168201915b5050505060048301546005840154600685018054949560ff9093169491935090611bc490613602565b80601f0160208091040260200160405190810160405280929190818152602001828054611bf090613602565b8015611c3d5780601f10611c1257610100808354040283529160200191611c3d565b820191906000526020600020905b815481529060010190602001808311611c2057829003601f168201915b5050505050905087565b610ac233838361271f565b611c5d848484611007565b61108c33858585856127be565b6000818152600d60205260408120805460018201546004830154600584015460068501546007860154600287018054899860609889988b988998899889988998969795969495600389019493929160ff8082169261010090920416908790611cd190613602565b80601f0160208091040260200160405190810160405280929190818152602001828054611cfd90613602565b8015611d4a5780601f10611d1f57610100808354040283529160200191611d4a565b820191906000526020600020905b815481529060010190602001808311611d2d57829003601f168201915b50505050509650858054611d5d90613602565b80601f0160208091040260200160405190810160405280929190818152602001828054611d8990613602565b8015611dd65780601f10611dab57610100808354040283529160200191611dd6565b820191906000526020600020905b815481529060010190602001808311611db957829003601f168201915b50505050509550995099509950995099509950995099509950509193959799909294969850565b6060611e0882612537565b5060008281526006602052604081208054611e2290613602565b80601f0160208091040260200160405190810160405280929190818152602001828054611e4e90613602565b8015611e9b5780601f10611e7057610100808354040283529160200191611e9b565b820191906000526020600020905b815481529060010190602001808311611e7e57829003601f168201915b505050505090506000611eb960408051602081019091526000815290565b90508051600003611ecb575092915050565b815115611efd578082604051602001611ee59291906137ef565b60405160208183030381529060405292505050919050565b611f06846128e9565b949350505050565b33600090815260106020526040902054670de0b6b3a76400001115611f755760405162461bcd60e51b815260206004820152601960248201527f496e73756666696369656e7420766f74696e6720706f776572000000000000006044820152606401610b24565b6000828152600d60205260409020600601544210611fd55760405162461bcd60e51b815260206004820152601760248201527f566f74696e6720706572696f642068617320656e6465640000000000000000006044820152606401610b24565b6000828152600d6020908152604080832033845260080190915290205460ff16156120425760405162461bcd60e51b815260206004820152601e60248201527f416c726561647920766f746564206f6e20746869732070726f706f73616c00006044820152606401610b24565b6000828152600d602052604090206007015460ff16156120a05760405162461bcd60e51b8152602060048201526019602482015278141c9bdc1bdcd85b08185b1c9958591e48195e1958dd5d1959603a1b6044820152606401610b24565b6000828152600d60209081526040808320338452600881018352818420805460ff199081166001179091556009820184528285208054871580159190931617905560109093529220549061210d57808260040160008282546121029190613652565b909155506121279050565b808260050160008282546121219190613652565b90915550505b61213233858561295e565b60408051841515815260208101839052339186917fcbdf6214089cba887ecbf35a0b6a734589959c9763342c756bb2a80ca2bc9f6e910160405180910390a350505050565b600034116121be5760405162461bcd60e51b815260206004820152601460248201527326bab9ba1039ba30b5b29039b7b6b29020a9aa2960611b6044820152606401610b24565b336000908152600f6020526040812080543492906121dd908490613652565b90915550503360009081526010602052604081208054349290612201908490613652565b909155505060405134815233907fb539ca1e5c8d398ddf1c41c30166f33404941683be4683319b57669a93dad4ef9060200160405180910390a2565b6001600160a01b03918216600090815260056020908152604080832093909416825291909152205460ff1690565b6000818152600c6020526040812080546004820154600583015460068401546007850154600886015460098701546001880180546060998a998a998d998a998a998a998a998a998a99909660028a019660038b01966001600160a01b03928316969195909460ff80841695610100909404169391929116908a906122ee90613602565b80601f016020809104026020016040519081016040528092919081815260200182805461231a90613602565b80156123675780601f1061233c57610100808354040283529160200191612367565b820191906000526020600020905b81548152906001019060200180831161234a57829003601f168201915b5050505050995088805461237a90613602565b80601f01602080910402602001604051908101604052809291908181526020018280546123a690613602565b80156123f35780601f106123c8576101008083540402835291602001916123f3565b820191906000526020600020905b8154815290600101906020018083116123d657829003601f168201915b5050505050985087805461240690613602565b80601f016020809104026020016040519081016040528092919081815260200182805461243290613602565b801561247f5780601f106124545761010080835404028352916020019161247f565b820191906000526020600020905b81548152906001019060200180831161246257829003601f168201915b505050505097509b509b509b509b509b509b509b509b509b509b509b505091939597999b90929496989a50565b6124b46126a0565b6001600160a01b0381166124de57604051631e4fbdf760e01b815260006004820152602401610b24565b611604816126cd565b60006001600160e01b031982166380ac58cd60e01b148061251857506001600160e01b03198216635b5e139f60e01b145b806109f657506301ffc9a760e01b6001600160e01b03198316146109f6565b6000818152600260205260408120546001600160a01b0316806109f657604051637e27328960e01b815260048101849052602401610b24565b6110de8383836001612b34565b6000828152600260205260408120546001600160a01b03908116908316156125aa576125aa818486612c3a565b6001600160a01b038116156125e8576125c7600085600080612b34565b6001600160a01b038116600090815260036020526040902080546000190190555b6001600160a01b03851615612617576001600160a01b0385166000908152600360205260409020805460010190555b60008481526002602052604080822080546001600160a01b0319166001600160a01b0389811691821790925591518793918516917fddf252ad1be2c89b69c2b068fc378daa952ba7f163c4a11628f55a4df523b3ef91a4949350505050565b60026008540361269957604051633ee5aeb560e01b815260040160405180910390fd5b6002600855565b6007546001600160a01b031633146118465760405163118cdaa760e01b8152336004820152602401610b24565b600780546001600160a01b038381166001600160a01b0319831681179093556040519116919082907f8be0079c531659141344cd1fd0a4f28419497f9722a3daafe3b4186f6b6457e090600090a35050565b6001600160a01b03821661275157604051630b61174360e31b81526001600160a01b0383166004820152602401610b24565b6001600160a01b03838116600081815260056020908152604080832094871680845294825291829020805460ff191686151590811790915591519182527f17307eab39ab6107e8899845ad3d59bd9653f200f220920489ca2b5937696c31910160405180910390a3505050565b6001600160a01b0383163b156128e257604051630a85bd0160e11b81526001600160a01b0384169063150b7a029061280090889088908790879060040161381e565b6020604051808303816000875af192505050801561283b575060408051601f3d908101601f191682019092526128389181019061385b565b60015b6128a4573d808015612869576040519150601f19603f3d011682016040523d82523d6000602084013e61286e565b606091505b50805160000361289c57604051633250574960e11b81526001600160a01b0385166004820152602401610b24565b805160208201fd5b6001600160e01b03198116630a85bd0160e11b146128e057604051633250574960e11b81526001600160a01b0385166004820152602401610b24565b505b5050505050565b60606128f482612537565b50600061290c60408051602081019091526000815290565b9050600081511161292c5760405180602001604052806000815250612957565b8061293684612c9e565b6040516020016129479291906137ef565b6040516020818303038152906040525b9392505050565b6009805490600061296e83613678565b90915550506009546129808482612d31565b6001600160a01b0384166000908152601060205260408120546129a290612d4b565b6040805160e08101825284815260208082018881526000898152600d83528481206001908101548587019081528651808801885260058152643b37ba32b960d91b81870152606087019081528b151560808801524260a088015260c087018990528a8452600e90955295909120845181559151908201559251600284015551929350916003820190612a3490826136d7565b50608082015160048201805460ff191691151591909117905560a0820151600582015560c08201516006820190612a6b90826136d7565b5050506001600160a01b0385166000908152601160209081526040808320805460018101825590845282842001859055805180820190915260058152643b37ba32b960d91b91810191909152612ac5908490879085612e09565b9050612ad18382612e3d565b84866001600160a01b0316847fbe2ead6b0185e84d215c1a3d1d23ae03c5f157128a4674e57f12ad29d730ce19604051612b24906020808252600590820152643b37ba32b960d91b604082015260600190565b60405180910390a4505050505050565b8080612b4857506001600160a01b03821615155b15612c0a576000612b5884612537565b90506001600160a01b03831615801590612b845750826001600160a01b0316816001600160a01b031614155b8015612b975750612b95818461223d565b155b15612bc05760405163a9fbf51f60e01b81526001600160a01b0384166004820152602401610b24565b8115612c085783856001600160a01b0316826001600160a01b03167f8c5be1e5ebec7d5bd14f71427d1e84f3dd0314c0f7b2291e5b200ac8c7c3b92560405160405180910390a45b505b5050600090815260046020526040902080546001600160a01b0319166001600160a01b0392909216919091179055565b612c45838383612e8d565b6110de576001600160a01b038316612c7357604051637e27328960e01b815260048101829052602401610b24565b60405163177e802f60e01b81526001600160a01b038316600482015260248101829052604401610b24565b60606000612cab83612ef0565b600101905060008167ffffffffffffffff811115612ccb57612ccb613345565b6040519080825280601f01601f191660200182016040528015612cf5576020820181803683370190505b5090508181016020015b600019016f181899199a1a9b1b9c1cb0b131b232b360811b600a86061a8153600a8504945084612cff57509392505050565b610ac2828260405180602001604052806000815250612fc8565b6060683635c9adc5dea000008210612d825750506040805180820190915260098152686c6567656e6461727960b81b602082015290565b681b1ae4d6e2ef5000008210612db25750506040805180820190915260048152636570696360e01b602082015290565b68056bc75e2d631000008210612de25750506040805180820190915260048152637261726560e01b602082015290565b505060408051808201909152600681526531b7b6b6b7b760d11b602082015290565b919050565b6060612e1485612c9e565b604051602001612e249190613878565b6040516020818303038152906040529050949350505050565b6000828152600660205260409020612e5582826136d7565b506040518281527ff8e1a15aba9398e019f0b49df1a4fde98ee17ae345cb5f6b5e2c27f5033e8ce79060200160405180910390a15050565b60006001600160a01b03831615801590611f065750826001600160a01b0316846001600160a01b03161480612ec75750612ec7848461223d565b80611f065750506000908152600460205260409020546001600160a01b03908116911614919050565b60008072184f03e93ff9f4daa797ed6e38ed64bf6a1f0160401b8310612f2f5772184f03e93ff9f4daa797ed6e38ed64bf6a1f0160401b830492506040015b6d04ee2d6d415b85acef81000000008310612f5b576d04ee2d6d415b85acef8100000000830492506020015b662386f26fc100008310612f7957662386f26fc10000830492506010015b6305f5e1008310612f91576305f5e100830492506008015b6127108310612fa557612710830492506004015b60648310612fb7576064830492506002015b600a83106109f65760010192915050565b612fd28383612fe0565b6110de3360008585856127be565b6001600160a01b03821661300a57604051633250574960e11b815260006004820152602401610b24565b60006130188383600061257d565b90506001600160a01b038116156110de576040516339e3563760e11b815260006004820152602401610b24565b60006020828403121561305757600080fd5b5035919050565b60005b83811015613079578181015183820152602001613061565b50506000910152565b6000815180845261309a81602086016020860161305e565b601f01601f19169290920160200192915050565b60006101208b83528a60208401528060408401526130ce8184018b613082565b905082810360608401526130e2818a613082565b6080840198909852505060a081019490945260c0840192909252151560e0830152151561010090910152949350505050565b6001600160e01b03198116811461160457600080fd5b60006020828403121561313c57600080fd5b813561295781613114565b6020815260006129576020830184613082565b80356001600160a01b0381168114612e0457600080fd5b6000806040838503121561318457600080fd5b61318d8361315a565b946020939093013593505050565b60006101608d83528060208401526131b58184018e613082565b905082810360408401526131c9818d613082565b905082810360608401526131dd818c613082565b6001600160a01b039a8b16608085015260a0840199909952505060c081019590955292151560e085015290151561010084015261012083015290921661014090920191909152949350505050565b87815286602082015285604082015260e06060820152600061325060e0830187613082565b85151560808401528460a084015282810360c08401526132708185613082565b9a9950505050505050505050565b60008060006060848603121561329357600080fd5b61329c8461315a565b92506132aa6020850161315a565b9150604084013590509250925092565b600080604083850312156132cd57600080fd5b823591506132dd6020840161315a565b90509250929050565b6000602082840312156132f857600080fd5b6129578261315a565b6020808252825182820181905260009190848201906040850190845b818110156133395783518352928401929184019160010161331d565b50909695505050505050565b634e487b7160e01b600052604160045260246000fd5b600067ffffffffffffffff8084111561337657613376613345565b604051601f8501601f19908116603f0116810190828211818310171561339e5761339e613345565b816040528093508581528686860111156133b757600080fd5b858560208301376000602087830101525050509392505050565b600082601f8301126133e257600080fd5b6129578383356020850161335b565b600080600080600060a0868803121561340957600080fd5b853567ffffffffffffffff8082111561342157600080fd5b61342d89838a016133d1565b9650602088013591508082111561344357600080fd5b61344f89838a016133d1565b9550604088013591508082111561346557600080fd5b50613472888289016133d1565b9350506134816060870161315a565b949793965091946080013592915050565b6000806000606084860312156134a757600080fd5b83359250602084013567ffffffffffffffff808211156134c657600080fd5b6134d2878388016133d1565b935060408601359150808211156134e857600080fd5b506134f5868287016133d1565b9150509250925092565b80358015158114612e0457600080fd5b6000806040838503121561352257600080fd5b61352b8361315a565b91506132dd602084016134ff565b6000806000806080858703121561354f57600080fd5b6135588561315a565b93506135666020860161315a565b925060408501359150606085013567ffffffffffffffff81111561358957600080fd5b8501601f8101871361359a57600080fd5b6135a98782356020840161335b565b91505092959194509250565b600080604083850312156135c857600080fd5b823591506132dd602084016134ff565b600080604083850312156135eb57600080fd5b6135f48361315a565b91506132dd6020840161315a565b600181811c9082168061361657607f821691505b60208210810361363657634e487b7160e01b600052602260045260246000fd5b50919050565b634e487b7160e01b600052601160045260246000fd5b808201808211156109f6576109f661363c565b818103818111156109f6576109f661363c565b60006001820161368a5761368a61363c565b5060010190565b601f8211156110de57600081815260208120601f850160051c810160208610156136b85750805b601f850160051c820191505b818110156128e0578281556001016136c4565b815167ffffffffffffffff8111156136f1576136f1613345565b613705816136ff8454613602565b84613691565b602080601f83116001811461373a57600084156137225750858301515b600019600386901b1c1916600185901b1785556128e0565b600085815260208120601f198616915b828110156137695788860151825594840194600190910190840161374a565b50858210156137875787850151600019600388901b60f8161c191681555b5050505050600190811b01905550565b6060815260006137aa6060830186613082565b6001600160a01b039490941660208301525060400152919050565b6040815260006137d86040830185613082565b905060018060a01b03831660208301529392505050565b6000835161380181846020880161305e565b83519083019061381581836020880161305e565b01949350505050565b6001600160a01b038581168252841660208201526040810183905260806060820181905260009061385190830184613082565b9695505050505050565b60006020828403121561386d57600080fd5b815161295781613114565b7f68747470733a2f2f6170692e66696573746164616f2e6c61742f6d657461646181526274612f60e81b6020820152600082516138bc81602385016020870161305e565b64173539b7b760d91b602393909101928301525060280191905056fea2646970667358221220a2869e008f3033eb926a610cdf1b4fa790629f238446c66ced46ef4d4e7b9c3d64736f6c63430008140033",
  "linkReferences": {},
  "deployedLinkReferences": {}
}